[
  {
    "name": "from",
    "type": "address",
    "value": "0x1230B3d59858296A31053C1b8562Ecf89A2f888b"
  },
  {
    "name": "to",
    "type": "address",
    "value": "0x938bae50a210b80EA233112800Cd5Bc2e7644300"
  },
  {
    "name": "ids",
    "type": "uint256[]",
    "value": [
      "1000"
    ]
  },
  {
    "name": "values",
    "type": "uint256[][]",
    "value": [
      [
        "100"
      ],
      [
        "100000",
        "2000"
      ]
    ]
  },
  {
    "name": "data",
    "type": "bytes",
    "value": "0x00"
  },
  {
    "name": "transactions",
    "type": "bytes",
    "value": "0x00c778417e063141139fce010982780140aa0cd5ab00000000000000000000000000000000000000000000000000470de4df81ffec0000000000000000000000000000000000000000000000000000000000000004d0e30db000c778417e063141139fce010982780140aa0cd5ab00000000000000000000000000000000000000000000000000000000000000000000000000000000000000000000000000000000000000000000000000000044095ea7b30000000000000000000000007ee114c3628ca90119fc699f03665bf9db8f5faf00000000000000000000000000000000000000000000000000470de4df81ffec007ee114c3628ca90119fc699f03665bf9db8f5faf000000000000000000000000000000000000000000000000000000000000000000000000000000000000000000000000000000000000000000000000000000a4dc7d93690000000000000000000000006e45d69a383ceca3d54688e833bd0e1388747e6b00000000000000000000000000000000000000000000000000470de4df81ffec000000000000000000000000c778417e063141139fce010982780140aa0cd5ab000000000000000000000000000000000000000000000000000000005f59386c000000000000000000000000000000000000000000000000000000005f593920",
    "valueDecoded": [
      {
        "operation": 0,
        "to": "0xc778417E063141139Fce010982780140Aa0cD5Ab",
        "value": 19999999999999980,
        "data": "0xd0e30db0",
        "dataDecoded": null
      },
      {
        "operation": 0,
        "to": "0xc778417E063141139Fce010982780140Aa0cD5Ab",
        "value": 0,
        "data": "0x095ea7b30000000000000000000000007ee114c3628ca90119fc699f03665bf9db8f5faf00000000000000000000000000000000000000000000000000470de4df81ffec",
        "dataDecoded": {
          "method": "approve",
          "parameters": [
            {
              "name": "spender",
              "type": "address",
              "value": "0x7ee114C3628Ca90119fC699f03665bF9dB8f5faF"
            },
            {
              "name": "value",
              "type": "uint256",
              "value": "19999999999999980"
            }
          ]
        }
      }
    ]

  }
]
